{
  "contractName": "Events",
  "abi": [
    {
      "anonymous": false,
      "inputs": [
        {
          "indexed": false,
          "internalType": "uint256",
          "name": "increment",
          "type": "uint256"
        },
        {
          "indexed": false,
          "internalType": "string",
          "name": "message",
          "type": "string"
        },
        {
          "indexed": false,
          "internalType": "address",
          "name": "sender",
          "type": "address"
        }
      ],
      "name": "Incremented",
      "type": "event"
    },
    {
      "anonymous": false,
      "inputs": [
        {
          "indexed": true,
          "internalType": "uint256",
          "name": "increment",
          "type": "uint256"
        },
        {
          "indexed": false,
          "internalType": "string",
          "name": "message",
          "type": "string"
        },
        {
          "indexed": false,
          "internalType": "address",
          "name": "sender",
          "type": "address"
        }
      ],
      "name": "IncrementedIndexed",
      "type": "event"
    },
    {
      "inputs": [],
      "name": "increaseId",
      "outputs": [],
      "stateMutability": "nonpayable",
      "type": "function"
    }
  ],
  "bytecode": "0x60806040526000805534801561001457600080fd5b506102a6806100246000396000f3fe608060405234801561001057600080fd5b506004361061002b5760003560e01c8063aca49e8814610030575b600080fd5b61003861003a565b005b600160008082825461004c9190610103565b925050819055507f5562a6028579bf91d87748b36e58af8f1468ad5ccdcd6266df6862f8e9ac584560005433604051610086929190610206565b60405180910390a16000547f3ed006ccd9d762090fe3ae52cf5ed96e52ef3cc5985391d757fec3253db69339336040516100c09190610242565b60405180910390a2565b6000819050919050565b7f4e487b7100000000000000000000000000000000000000000000000000000000600052601160045260246000fd5b600061010e826100ca565b9150610119836100ca565b9250827fffffffffffffffffffffffffffffffffffffffffffffffffffffffffffffffff0382111561014e5761014d6100d4565b5b828201905092915050565b610162816100ca565b82525050565b600082825260208201905092915050565b7f49642077617320696e6372656d656e7465640000000000000000000000000000600082015250565b60006101af601283610168565b91506101ba82610179565b602082019050919050565b600073ffffffffffffffffffffffffffffffffffffffff82169050919050565b60006101f0826101c5565b9050919050565b610200816101e5565b82525050565b600060608201905061021b6000830185610159565b818103602083015261022c816101a2565b905061023b60408301846101f7565b9392505050565b6000604082019050818103600083015261025b816101a2565b905061026a60208301846101f7565b9291505056fea2646970667358221220e73675eeb66106ee3551007109713868018cadbb44aca06a1574028f1587f84964736f6c634300080b0033",
  "immutableReferences": {},
  "source": "pragma solidity ^0.8.7;\r\n\r\ncontract Events{ \r\n\r\n    uint someId = 0;\r\n\r\n    event Incremented(uint increment, string message, address sender);\r\n    event IncrementedIndexed(uint indexed increment, string message, address sender);\r\n\r\n    function increaseId() external {\r\n        someId += 1;\r\n        emit Incremented(someId, 'Id was incremented', msg.sender);        \r\n        emit IncrementedIndexed(someId, 'Id was incremented', msg.sender);        \r\n    }\r\n\r\n    \r\n    \r\n}",
  "sourcePath": "C:\\Users\\eg-bo\\YandexDisk\\   \\web3\\contracts\\events.sol",
  "compiler": {
    "name": "solc",
    "version": "0.8.11+commit.d7f03943.Emscripten.clang"
  },
  "schemaVersion": "3.4.5",
  "updatedAt": "2022-03-22T18:38:41.172Z",
  "networkType": "ethereum",
  "devdoc": {
    "kind": "dev",
    "methods": {},
    "version": 1
  },
  "userdoc": {
    "kind": "user",
    "methods": {},
    "version": 1
  }
}