{
  "contractName": "Events",
  "abi": [
    {
      "anonymous": false,
      "inputs": [
        {
          "indexed": false,
          "internalType": "uint256",
          "name": "increment",
          "type": "uint256"
        },
        {
          "indexed": false,
          "internalType": "string",
          "name": "message",
          "type": "string"
        },
        {
          "indexed": false,
          "internalType": "address",
          "name": "sender",
          "type": "address"
        }
      ],
      "name": "Incremented",
      "type": "event"
    },
    {
      "anonymous": false,
      "inputs": [
        {
          "indexed": true,
          "internalType": "uint256",
          "name": "increment",
          "type": "uint256"
        },
        {
          "indexed": false,
          "internalType": "string",
          "name": "message",
          "type": "string"
        },
        {
          "indexed": false,
          "internalType": "address",
          "name": "sender",
          "type": "address"
        }
      ],
      "name": "IncrementedIndexed",
      "type": "event"
    },
    {
      "inputs": [],
      "name": "someId",
      "outputs": [
        {
          "internalType": "uint256",
          "name": "",
          "type": "uint256"
        }
      ],
      "stateMutability": "view",
      "type": "function",
      "constant": true
    },
    {
      "inputs": [],
      "name": "increaseId",
      "outputs": [],
      "stateMutability": "nonpayable",
      "type": "function"
    }
  ],
  "bytecode": "0x60806040526000805534801561001457600080fd5b506102f0806100246000396000f3fe608060405234801561001057600080fd5b50600436106100365760003560e01c806301d6eb841461003b578063aca49e8814610059575b600080fd5b610043610063565b6040516100509190610112565b60405180910390f35b610061610069565b005b60005481565b600160008082825461007b919061015c565b925050819055507f5562a6028579bf91d87748b36e58af8f1468ad5ccdcd6266df6862f8e9ac5845600054336040516100b5929190610250565b60405180910390a16000547f3ed006ccd9d762090fe3ae52cf5ed96e52ef3cc5985391d757fec3253db69339336040516100ef919061028c565b60405180910390a2565b6000819050919050565b61010c816100f9565b82525050565b60006020820190506101276000830184610103565b92915050565b7f4e487b7100000000000000000000000000000000000000000000000000000000600052601160045260246000fd5b6000610167826100f9565b9150610172836100f9565b9250827fffffffffffffffffffffffffffffffffffffffffffffffffffffffffffffffff038211156101a7576101a661012d565b5b828201905092915050565b600082825260208201905092915050565b7f49642077617320696e6372656d656e7465640000000000000000000000000000600082015250565b60006101f96012836101b2565b9150610204826101c3565b602082019050919050565b600073ffffffffffffffffffffffffffffffffffffffff82169050919050565b600061023a8261020f565b9050919050565b61024a8161022f565b82525050565b60006060820190506102656000830185610103565b8181036020830152610276816101ec565b90506102856040830184610241565b9392505050565b600060408201905081810360008301526102a5816101ec565b90506102b46020830184610241565b9291505056fea2646970667358221220f9ebab774e01df3b715610a8cfe98b60826d2211dc2a8b330c18306dfad740b064736f6c634300080b0033",
  "immutableReferences": {},
  "source": "pragma solidity ^0.8.7;\r\n\r\ncontract Events{ \r\n\r\n    uint public someId = 0;\r\n\r\n    event Incremented(uint increment, string message, address sender);    \r\n    // The index parameter allows us to filter the event logs by these parameters in the future\r\n    event IncrementedIndexed(uint indexed increment, string message, address sender);\r\n\r\n    function increaseId() external {\r\n        someId += 1;\r\n        emit Incremented(someId, 'Id was incremented', msg.sender);        \r\n        emit IncrementedIndexed(someId, 'Id was incremented', msg.sender);        \r\n    }   \r\n    \r\n}",
  "sourcePath": "C:\\\\web3\\contracts\\events.sol",
  "compiler": {
    "name": "solc",
    "version": "0.8.11+commit.d7f03943.Emscripten.clang"
  },
  "schemaVersion": "3.4.5",
  "updatedAt": "2022-04-19T13:19:09.743Z",
  "networkType": "ethereum",
  "devdoc": {
    "kind": "dev",
    "methods": {},
    "version": 1
  },
  "userdoc": {
    "kind": "user",
    "methods": {},
    "version": 1
  }
}