{
  "contractName": "Gas_Test",
  "abi": [
    {
      "inputs": [],
      "stateMutability": "nonpayable",
      "type": "constructor"
    },
    {
      "inputs": [
        {
          "internalType": "uint256",
          "name": "",
          "type": "uint256"
        }
      ],
      "name": "arrayFunds",
      "outputs": [
        {
          "internalType": "uint256",
          "name": "",
          "type": "uint256"
        }
      ],
      "stateMutability": "view",
      "type": "function",
      "constant": true
    },
    {
      "inputs": [],
      "name": "totalFunds",
      "outputs": [
        {
          "internalType": "uint256",
          "name": "",
          "type": "uint256"
        }
      ],
      "stateMutability": "view",
      "type": "function",
      "constant": true
    },
    {
      "inputs": [],
      "name": "optionA",
      "outputs": [],
      "stateMutability": "nonpayable",
      "type": "function"
    },
    {
      "inputs": [],
      "name": "optionB",
      "outputs": [],
      "stateMutability": "nonpayable",
      "type": "function"
    },
    {
      "inputs": [],
      "name": "optionC",
      "outputs": [],
      "stateMutability": "nonpayable",
      "type": "function"
    },
    {
      "inputs": [],
      "name": "optionD",
      "outputs": [],
      "stateMutability": "nonpayable",
      "type": "function"
    }
  ],
  "bytecode": "0x608060405234801561001057600080fd5b50604051806101a00160405280600160ff168152602001600260ff168152602001600360ff168152602001600460ff168152602001600560ff168152602001600660ff168152602001600760ff168152602001600860ff168152602001600960ff168152602001600a60ff168152602001600b60ff168152602001600c60ff168152602001600d60ff16815250600090600d6100ad9291906100b3565b50610122565b8280548282559060005260206000209081019282156100f4579160200282015b828111156100f3578251829060ff169055916020019190600101906100d3565b5b5090506101019190610105565b5090565b5b8082111561011e576000816000905550600101610106565b5090565b6104df806101316000396000f3fe608060405234801561001057600080fd5b50600436106100625760003560e01c8063136b914d146100675780632157409d1461007157806366d45d151461007b578063673c6dfe14610085578063968ed6001461008f578063c3c43fa8146100ad575b600080fd5b61006f6100dd565b005b61007961013c565b005b610083610194565b005b61008d61023a565b005b6100976102e3565b6040516100a49190610333565b60405180910390f35b6100c760048036038101906100c2919061037f565b6102e9565b6040516100d49190610333565b60405180910390f35b600080600090505b6000805490508110156101315760008181548110610106576101056103ac565b5b90600052602060002001548261011c919061040a565b9150808061012990610460565b9150506100e5565b508060018190555050565b60005b60008054905081101561019157600081815481106101605761015f6103ac565b5b9060005260206000200154600154610178919061040a565b600181905550808061018990610460565b91505061013f565b50565b60008060008054806020026020016040519081016040528092919081815260200182805480156101e357602002820191906000526020600020905b8154815260200190600101908083116101cf575b5050505050905060005b815181101561022e57818181518110610209576102086103ac565b5b60200260200101518361021c919061040a565b92506102278161030d565b90506101ed565b50816001819055505050565b600080600080548060200260200160405190810160405280929190818152602001828054801561028957602002820191906000526020600020905b815481526020019060010190808311610275575b5050505050905060005b81518110156102d7578181815181106102af576102ae6103ac565b5b6020026020010151836102c2919061040a565b925080806102cf90610460565b915050610293565b50816001819055505050565b60015481565b600081815481106102f957600080fd5b906000526020600020016000915090505481565b6000600182019050919050565b6000819050919050565b61032d8161031a565b82525050565b60006020820190506103486000830184610324565b92915050565b600080fd5b61035c8161031a565b811461036757600080fd5b50565b60008135905061037981610353565b92915050565b6000602082840312156103955761039461034e565b5b60006103a38482850161036a565b91505092915050565b7f4e487b7100000000000000000000000000000000000000000000000000000000600052603260045260246000fd5b7f4e487b7100000000000000000000000000000000000000000000000000000000600052601160045260246000fd5b60006104158261031a565b91506104208361031a565b9250827fffffffffffffffffffffffffffffffffffffffffffffffffffffffffffffffff03821115610455576104546103db565b5b828201905092915050565b600061046b8261031a565b91507fffffffffffffffffffffffffffffffffffffffffffffffffffffffffffffffff82141561049e5761049d6103db565b5b60018201905091905056fea2646970667358221220312eaffd91c7f83f9369f73f0f1435f70f6b1d7edf7db9e8ad08da1417aad19d64736f6c634300080b0033",
  "immutableReferences": {},
  "source": "pragma solidity ^0.8.7;\r\n\r\ncontract Gas_Test{\r\n    uint[] public arrayFunds;\r\n    uint public totalFunds;\r\n\r\n    constructor() {\r\n        arrayFunds = [1,2,3,4,5,6,7,8,9,10,11,12,13];\r\n    }\r\n\r\n    function unsafe_inc(uint x) private pure returns (uint) {\r\n        unchecked { return x + 1; }\r\n    }\r\n\r\n    // The most expensive one, read and write to blockchain in every iteration\r\n    function optionA() external {\r\n        for (uint i =0; i < arrayFunds.length; i++){\r\n            totalFunds = totalFunds + arrayFunds[i];\r\n        }\r\n    }\r\n    \r\n    // consumes less gas via writing the result of each iteration to memory variable\r\n    // and changing the state variable only once\r\n    function optionB() external {\r\n        uint _totalFunds;\r\n        for (uint i =0; i < arrayFunds.length; i++){\r\n            _totalFunds = _totalFunds + arrayFunds[i];\r\n        }\r\n        totalFunds = _totalFunds;\r\n    }\r\n\r\n    // The best solution, clones arrayFunds to memory and reads from it \r\n    function optionC() external {\r\n        uint _totalFunds;\r\n        uint[] memory _arrayFunds = arrayFunds;\r\n        for (uint i =0; i < _arrayFunds.length; i++){\r\n            _totalFunds = _totalFunds + _arrayFunds[i];\r\n        }\r\n        totalFunds = _totalFunds;\r\n    }\r\n\r\n    // Saves a little bit more gas than optionC using unsafe_inc\r\n    function optionD() external {\r\n        uint _totalFunds;\r\n        uint[] memory _arrayFunds = arrayFunds;\r\n        for (uint i =0; i < _arrayFunds.length; i = unsafe_inc(i)){\r\n            _totalFunds = _totalFunds + _arrayFunds[i];\r\n        }\r\n        totalFunds = _totalFunds;\r\n    }\r\n    \r\n}",
  "sourcePath": "C:\\Users\\eg-bo\\YandexDisk\\   \\web3\\contracts\\gas_optimization.sol",
  "compiler": {
    "name": "solc",
    "version": "0.8.11+commit.d7f03943.Emscripten.clang"
  },
  "schemaVersion": "3.4.5",
  "updatedAt": "2022-03-22T18:38:40.152Z",
  "networkType": "ethereum",
  "devdoc": {
    "kind": "dev",
    "methods": {},
    "version": 1
  },
  "userdoc": {
    "kind": "user",
    "methods": {},
    "version": 1
  }
}